:020000040800F2
:1000000070090020490100089B0E0008A90900089A
:10001000990E0008E1010008771A000800000000AE
:10002000000000000000000000000000B115000802
:100030009F05000800000000B5110008891600089F
:100040006301000863010008630100086301000800
:1000500063010008630100086301000863010008F0
:1000600063010008630100086301000863010008E0
:1000700063010008630100086301000863010008D0
:1000800063010008630100086301000863010008C0
:1000900063010008630100086301000863010008B0
:1000A00063010008630100086301000863010008A0
:1000B000DD16000863010008630100086301000801
:1000C0006301000863010008630100086301000880
:1000D0006301000849180008630100086301000873
:1000E0006301000863010008630100086301000860
:1000F0006301000863010008630100086301000850
:10010000630100086301000811170008630100087B
:10011000630100086301000863010008630100082F
:10012000630100086301000863010008630100081F
:10013000DFF810D000F042F800480047BD1E00086C
:10014000AFF300807009002006488047064800474A
:10015000FEE7FEE7FEE7FEE7FEE7FEE7FEE7FEE777
:10016000FEE7FEE78D1600083101000840EA0103B2
:100170009B0703D009E008C9121F08C0042AFAD25D
:1001800003E011F8013B00F8013B521EF9D2704721
:1001900030B50B46014600202022012409E021FA57
:1001A00002F59D4205D303FA02F5491B04FA02F554
:1001B0002844151EA2F10102F1DC30BD064C074DAA
:1001C00006E0E06840F0010394E807009847103427
:1001D000AC42F6D3FFF7B0FFA4290008C4290008F9
:1001E000FEE7000001490020087070475800002019
:1001F0004FF4A06000F090BEF8B50121082001F096
:10020000BDF80121102001F0B9F84FF40056ADF807
:10021000006010248DF8034003258DF80250234F11
:100220006946384600F05AFA3146384600F0B2FACC
:10023000E602ADF800608DF803408DF80250694683
:10024000384600F04BFA3146384600F0A3FAA602D1
:10025000ADF800608DF803408DF8025069463846CD
:1002600000F03CFA3146384600F094FA2602ADF828
:1002700000608DF803408DF802506946384600F062
:100280002DFA3146384600F085FA0820ADF8000016
:100290008DF803408DF80250054C6946204600F069
:1002A0001DFA0821204600F075FAF8BD000C014047
:1002B0000010014010B50021AE2000F035FF0021F4
:1002C000D52000F031FF0021502000F02DFF00214B
:1002D000A82000F029FF00213F2000F025FF002189
:1002E000D32000F021FF0021084600F01DFF00216F
:1002F000402000F019FF00218D2000F015FF0021A3
:10030000142000F011FF0021202000F00DFF00213B
:10031000022000F009FF0021A12000F005FF0021CC
:10032000C02000F001FF0021DA2000F0FDFE0021D6
:10033000122000F0F9FE0021812000F0F5FE0021DE
:10034000EF2000F0F1FE0021D92000F0EDFE0021A9
:10035000F12000F0E9FE0021DB2000F0E5FE0021A5
:10036000302000F0E1FE0021A42000F0DDFE00219D
:10037000A62000F0D9FE0021BDE81040AF2000F01B
:10038000D3BE10B501F008F84FF48034204601F0D8
:10039000A3F801F0EBF8012822D1102000F088F931
:1003A000022000F091F9002001F08CF8002001F00B
:1003B000B9F8A01101F0ACF84FF4E011204601F0BB
:1003C000C1F8012001F0B8F8392001F05BF80028ED
:1003D000FAD0022001F0C0F801F06CF80828FBD137
:1003E00010BD7FB504460D460121084600F0B8FF58
:1003F000ADF80840ADF804500024ADF80A40ADF85F
:1004000006404FF0804501A9284601F0C5F90122B8
:100410001146284601F0B5F91C218DF800108DF821
:10042000014003218DF8021001218DF80310684668
:1004300000F040FD0121284601F08BF97FBD00004E
:100440007FB504460D460121082000F089FFADF874
:100450000840ADF804500024ADF80A40ADF806405D
:100460000E4D01A9284601F097F9012211462846B0
:1004700001F087F932218DF800108DF80140032139
:100480008DF8021001218DF80310684600F012FD6E
:100490000121284601F05DF97FBD0000000C0040FD
:1004A00030B587B004460121880300F067FF0121C1
:1004B000042000F063FF4FF40070ADF8180018201E
:1004C0008DF81B0003208DF81A00224D06A928463E
:1004D00000F004F92815ADF8180004208DF81B0071
:1004E00006A9284600F0FAF802A801F0B9FA029429
:1004F0000024ADF80C40ADF80E40ADF810400C20D3
:10050000ADF81200ADF81440134D02A9284601F0D1
:1005100041FA25218DF8041001218DF805108DF880
:1005200006108DF8071001A800F0C4FC012240F26B
:100530002551284601F013FA012240F2277128467E
:1005400001F00DFA0121284601F0D6F903480470A4
:1005500007B030BD00080140003801405E000020B7
:1005600070B50023002512E0B0F900608468A45D36
:10057000CC540488641C24B20480B0F90460B442F2
:1005800000DB05805B1C1BB2C488641EC480B0F90C
:100590000640002C01DD9342E6DB184670BD704733
:1005A00001B503480099016001680029FCD108BD2C
:1005B0007400002008B50021009142F2107304E09D
:1005C000009300994A1E0092FBD2401E411CF7D1B5
:1005D00008BDF0B50023002512E0B0F9027086686E
:1005E000CC5CF4554488641C24B24480B0F90460A7
:1005F000B44200DB45805B1C1BB2C488641CC48011
:10060000B0F90640B0F90460B44201DA9342E4DB89
:100610001846F0BD2DE9F0470024224F4FF0100896
:100620006FF00F0957F8340048B307EBC40504EB2B
:100630008400696808EBC006491EF0B21AA200F0F7
:1006400039FDF0B219A2696800F034FD6968A1F1C2
:100650002200162807D8134834388069A0421BD1DD
:100660000120BDE8F087502916DBF0B20EA200F0A1
:1006700021FD002047F83400C5F804900CE007EB9A
:10068000C40504EB840008EBC000C0B206A2696890
:1006900000F010FDC5F80490641C032CC2DB0020A0
:1006A000DFE7000034000020202000005F60000031
:1006B00004490A6822F010020A600A6802430A60CC
:1006C0007047000000200240034A116801F0380121
:1006D0000143116070470000002002402DE9F04105
:1006E0000022CC7804F00F03E40601D58C78234374
:1006F0000C784FF00F0714F0FF0F4FF0010C1CD0D7
:1007000005680CFA02F40E882640A64211D1960024
:1007100007FA06F825EA080503FA06F848EA050587
:10072000CE78282E02D0482E02D002E0446100E0AC
:100730000461521C082AE4D305600A88FF2A1ED9E6
:100740004568002202F108060CFA06F40E882640DD
:10075000A64210D1960007FA06F825EA080503FA22
:1007600006F848EA0505CE78282E00D14461CE78F7
:10077000482E00D10461521C082AE3D34560BDE82D
:10078000F0810246002092680A4200D001207047A2
:100790004161704701617047002A01D001617047D3
:1007A0004161704770B505460E460024F2B2E9B2C9
:1007B000E0B200F0F7FB641C802CF7DB70BD00009A
:1007C000F8B55F4C04F13406B4F90000B4F9021036
:1007D0000844A1690844E169084471680844F16863
:1007E00008447169084401F07FFB206A002510B3BA
:1007F0000A226946206901F011FBA06A401CA06230
:1008000000287DDDE16A606AFFF7CCFF606A401C6A
:10081000C11700EB117121F00F01401A00F0B8FA76
:10082000606A401C60627F2804DDE06A00286ED0A8
:10083000E562656281E02089401C00B22081322897
:1008400002DDA06900F054FDA088401C00B2A08029
:10085000B0F57A7F06DD3BA001F018F96088401CF6
:100860006080A580E088401C00B2E080FA2803DDAB
:100870002069401C2061E580E089401C00B2E081D5
:1008800040F6C411884206DD6169491C616130A0EF
:1008900001F0FCF8E58140F2F31701F017FB90FB43
:1008A000F7F107FB11000127032801DA46F8307041
:1008B0006089618800EB4100608115E0002056F8F6
:1008C000301021B106EBC0014A68521C4A60401C3E
:1008D0000328F4DBFFF79EFE18B12762A06900F041
:1008E0006BFC60890A386081B4F90A000A28E5DCEB
:1008F000A089618800EB810000B2A0810A2801E094
:1009000004E004E002DD00F08DFAA581F8BD7F204F
:1009100060621AA20021202000F0CCFB6A46002170
:10092000502000F0C7FB17A22821182000F0DCFBA4
:1009300017A23421142000F0D7FBA562F8BD0000F7
:10094000000000205370656564207570210A000066
:10095000596F752067657420616E20616D6D6F2E13
:10096000204E6F7720796F75206861766520256449
:1009700020616D6D6F2873290A00000053636F7248
:10098000653A0000507265737320525354000000A2
:10099000746F20726573746172740000014800788E
:1009A0007047000058000020FEE7000010B5164C0C
:1009B000012060800021216103226261A061E06169
:1009C000216212A001F062F8B4F9020001F08CFA81
:1009D00000211AA2084600F06DFB18A21021002089
:1009E00000F068FB15A22021002000F063FB13A299
:1009F0003021002000F05EFB3021BDE8104014A241
:100A0000382000F057BB000000000020205B596F29
:100A1000756E6765725D20596F75207374617274AD
:100A20002061206E65772067616D652C20676F6F90
:100A300064206C75636B210A000000007C2020207C
:100A4000207C202020207C202020207C0000000012
:100A50005C5E000010B500F019FE00F041F800F0F7
:100A600010F84FF4E13000F06CF800F05DF800F0A1
:100A700039F800F009F800F061F9BDE8104000F025
:100A800031B9FFF7B5BB000070B5FFF7B5FB0B4DF3
:100A90004FF4804421462846FFF77AFE0A20FFF7EC
:100AA0007FFD21462846FFF775FE0A20FFF778FDF7
:100AB000FFF700FCBDE8704000F038BA000C0140C0
:100AC00010B50023038043808280C38081600021B1
:100AD00003E084686354491C09B29142F9DB10BDFC
:100AE000FFF74FBC0E484FF47A710068B0FBF1F08D
:100AF000B0F1807F01D301200DE020F07F414FF065
:100B0000E020491E4161074AF021117000218161F6
:100B1000072101610020002800D0FEE77047000097
:100B20007800002023ED00E010B540F2E7344721C3
:100B30002046FFF756FC2046BDE810404721FFF74E
:100B40007FBC10B5044600F005F82046BDE8104013
:100B5000FFF7A6BC10B500200C4A002102F1640387
:100B600011541954401C00B26428F9DB074964226F
:100B7000A1F11800FFF7A4FF044964226431BDE825
:100B80001040A1F17000FFF79BBF0000A8040020F7
:100B900070B50E4D02212846FFF7F3FD0C4C60B1F5
:100BA00004212846FFF7EDFD50B101210948FFF768
:100BB000E8FD40B10020206070BD0120206070BDC4
:100BC0000220206070BD0320206070BD0010014035
:100BD0004C000020000801402DE9F041214C002587
:100BE000204621684068002938D0002834D11F4EA3
:100BF0001D4F0129306804D003290AD0022910D0E2
:100C00001BE03860401E3060014619A000F03EFF36
:100C100013E03860401C3060014615A000F036FF3C
:100C20000BE000F0E3FA28B11848016818A000F0C2
:100C30002DFF02E021A000F029FF3068022801DD2D
:100C4000022030603068002800DA3560396830688A
:100C500000F010FB20686060BDE8F0810028FBD048
:100C60006560F9E74C0000201C00002018000020FF
:100C7000596F75206D6F766520746F206C6F63619E
:100C800074696F6E2025640A0000000014000020C3
:100C9000596F752070726573732046495245212043
:100CA000596F75205354494C4C2068617665202556
:100CB0006420616D6D6F2873290A0000596F7520DB
:100CC00070726573732046495245206275742079AD
:100CD0006F752068617665204E4F20616D6D6F0ADB
:100CE0000000000038B50121042000F047FB01217D
:100CF000102000F043FB0220ADF8000048248DF8DE
:100D000003400C4D69462846FFF7E8FC0421ADF886
:100D100000108DF8034069462846FFF7DFFC0120EC
:100D2000ADF800008DF8034069460348FFF7D6FC94
:100D300038BD00000010014000080140F8B5012155
:100D4000102000F01BFB10248DF80340ADF800408C
:100D500003258DF802500D4E69463046FFF7BEFC64
:100D60008DF803402021ADF800108DF8025069463F
:100D70003046FFF7B3FC002210213046FFF70CFD90
:100D8000002220213046FFF707FDF8BD001001408A
:100D900010B500280FD0032817D006281FD0092827
:100DA00027D10121002000F025F80021BDE81040E6
:100DB000012000F01FB80021084600F01BF80021B8
:100DC000BDE81040012000F015B80021084600F0F1
:100DD00011F80121BDE81040084600F00BB80021D1
:100DE000084600F007F80121BDE81040084600F071
:100DF00001B810BD02000A4804D061B101222021CF
:100E0000FFF7CABC19B101221021FFF7C5BC0022AF
:100E10001021FFF7C1BC00222021FFF7BDBC00005C
:100E2000001001402DE9F0470426DFF86880D8F86B
:100E30003000401CC8F83000B146002506EB8600A3
:100E400009EBC00798F83000012200EB0510001FE5
:100E5000C1B2F8B200F0A6F8002498F830000022E1
:100E6000001B00EB0510C1B2F8B200F09BF8641C47
:100E7000042CF2DB6D1C042DE4DB761E002EDCDA84
:100E8000D8F83000102802DB0020C8F83000BDE898
:100E9000F087000000000020FEE7704700F01F020E
:100EA000012191404009800000F1E020C0F880124B
:100EB0007047000070B50F23C27801260178002A20
:100EC0001ED0144A126802F4E062C2F5E062120A0F
:100ED000C2F10404D3404578A54082781A402A43E1
:100EE000120101F1E02181F80024007800F01F01D7
:100EF0008E404009800000F1E020C0F8006170BD24
:100F000001F01F0086404809800000F1E020C0F891
:100F1000806170BD0CED00E00249084302490860A1
:100F2000704700000000FA050CED00E030B400212D
:100F3000084B0022002003EBC0046254401CC0B2E6
:100F40008028F8D3491CC9B20829F3D330BC00F07B
:100F500047B800009000002010B57F281AD83F291C
:100F600018DC002916DBCB1701EB5374E310C3F137
:100F70000703DBB224F00704091BC9B2C1F107045F
:100F80000121A140C9B2064C04EBC0001AB1C25CF9
:100F90000A43C25410BDC25C8A43C25410BD000053
:100FA0009000002010B57F2813D83F2911D80723BF
:100FB000A3EBD103DBB201F00701C1F1070401216A
:100FC000A140C9B2054C04EBC0001AB1C25C0A438F
:100FD000C25410BDC25C8A43C25410BD90000020B0
:100FE00070B500250F4E05F1B000C0B2002100F031
:100FF0009BF80021084600F097F80021102000F02F
:1010000093F8002406EBC4000121405D00F08CF849
:10101000641CE4B2802CF5D36D1CEDB2082DE2D334
:1010200070BD0000900000202DE9F05F83460D4662
:101030009846A946203A02F0FF0A002632E0B8F1AD
:101040000C0F0CD0194800EB0A10845D0027200615
:101050000CD5294658460A9AFFF77EFF0DE0144941
:101060000AEB4A0001EB8000845DEFE70A9888B143
:10107000002229465846FFF76FFF6006040E6D1CDC
:10108000A5EB0900404507D14D460BF1010B0BF0D4
:10109000FF0B05E00122ECE77F1CFFB2082FD6D33F
:1010A000761CF6B24645CAD3BDE8F09F6823000817
:1010B000F41E0008F8B504460D46164601270FE059
:1010C0007A2C01D900241035502D00DD5025102335
:1010D000294620460097FFF7A7FF0834E4B2761CA4
:1010E0003278002AECD1F8BDF8B504460D46164614
:1010F000012714E07A2C02D900240C35EDB2502DD2
:1011000003D900242546FFF711FF009732780C23FE
:1011100029462046FFF788FF0834E4B2761C307871
:101120000028E7D1F8BD00002DE9F0470546DFF8BB
:101130007C80002902D0012905D008E00821404622
:10114000FFF726FB03E008214046FFF723FB184F7B
:101150004FF4805949463846FFF71AFB00244FF4F4
:10116000004A7E1431463846FFF712FB280604D5A4
:1011700051463846FFF70EFB03E051463846FFF76D
:1011800007FB31463846FFF705FB6806050E641C71
:1011900024B2082CE6DB49463846FFF7FBFA404606
:1011A000BDE8F0470821FFF7F5BA00000010014044
:1011B000000C01407047000010B500EB80001021CA
:1011C00001EBC000C0B206A23021FFF773FFFFF7AA
:1011D00007FF04480169BDE81040034800F056BC11
:1011E0004747000000000020582900082DE9F04181
:1011F0000746DFF87C80D8F81400002835DD00248D
:10120000172107EB870001EBC005182101EBC00691
:10121000E1B2E8B20122FFF7C5FEE1B2F0B201226D
:10122000FFF7C0FE641C302CF2DBFFF7D9FE10493B
:101230000020343141F83700D8F81400401EC8F8B7
:1012400014006420FFF7B6F90024E1B2E8B20022EE
:10125000FFF7A8FEE1B2F0B20022FFF7A3FE641C84
:10126000402CF2DB0120BDE8F0810020FBE700000C
:101270000000002010B504461A4A126A002A30D134
:1012800021B1012908D0022911D10BE016A2302189
:101290001020FFF70FFF0AE013A230213820FFF7DC
:1012A00009FF04E010A230216020FFF703FF54B1D2
:1012B000012C0FD0022C14D13021BDE810400BA21C
:1012C0006020FFF7F7BE3021BDE8104007A21020D4
:1012D000FFF7F0BE3021BDE8104004A23820FFF730
:1012E000E9BE10BD00000020202000005C5E000070
:1012F000002808D001280BD002280ED1302107A2E7
:101300006020FFF7D7BE302104A21020FFF7D2BE25
:10131000302102A23820FFF7CDBE70475C5E00008E
:1013200010B5FFF73BFB00280FD008480188891C47
:101330000180FFF745FAFFF72BFCFFF74DFCFFF7A5
:101340004FFEBDE81040FEF74DBF10BD000000206D
:10135000C088002801D0002070470120704700009D
:10136000054A002903D0D1690143D1617047D16991
:101370008143D1617047000000100240054A0029F6
:1013800003D09169014391617047916981439161F3
:1013900070470000001002400C48016841F0010154
:1013A000016041680A4A114041600168094A1140E0
:1013B0000160016821F480210160416821F4FE018F
:1013C00041604FF41F01816070470000001002402F
:1013D0000000FFF8FFFFF6FE10B5264A516801F045
:1013E0000C01254B002927D0042927D0082927D014
:1013F0000360516801F0F0010909204B5C5C016851
:10140000E1404160546804F4E064240A1C5D21FA60
:1014100004F48460546804F46054E40A1B5DD94009
:10142000C160526802F44042920B144B1B1F9A5C3D
:10143000B1FBF2F1016110BD0360DAE70360D8E7A8
:10144000516801F47011536803F48033022404EBF3
:10145000914133B153689B0307D5094B5943016050
:10146000C7E7074B59430160C3E7034B594301608A
:10147000BFE700000010024000127A006300002065
:1014800000093D00034600205909094A01290AD0F4
:1014900002290AD0516A03F01F02012393400B4234
:1014A00000D0012070471168F5E7116AF3E70000EA
:1014B000001002400248406800F00C007047000035
:1014C00000100240034A516821F0F00101435160CD
:1014D00070470000001002400C490A6822F4803274
:1014E0000A600A6822F480220A60B0F5803F07D0C3
:1014F000B0F5802F03D1086840F4A0200860704741
:10150000086840F480300860704700000010024016
:10151000034A516821F4E0610143516070470000C3
:1015200000100240034A516821F4605141EAC000B2
:101530005060704700100240014908667047000083
:1015400000004242034B5A6822F47C1208431043C5
:101550005860704700100240034A516821F00301AF
:1015600001435160704700000010024018B5002090
:1015700000904FF4A0643120FFF784FF0099491CCC
:1015800000910099A14201D00028F4D03120FFF74A
:1015900079FF08B1012018BD002018BD10B5014623
:1015A00001220248FEF7DCFFC0B210BD900400200B
:1015B0007047000010B5064CC1B2204600F04CFA4E
:1015C0004021204600F0A4F90028F9D010BD000009
:1015D00000380140AFF300800CB500220192009268
:1015E0002748016841F4803101604FF4A06301682D
:1015F00001F4003100910199491C0191009911B940
:1016000001999942F3D10168890302D50121009122
:1016100000E000920099012930D11A490A6842F08D
:1016200010020A600A6822F003020A600A6842F0A7
:1016300002020A604168416041684160416841F4CA
:1016400080614160416821F47C114160416841F44E
:10165000E8114160016841F0807101600168890111
:10166000FCD5416821F003014160416841F002016D
:1016700041604168C1F381010229FAD10CBD00002B
:10168000001002400020024000F0D4B810B50F480E
:10169000016841F00101016041680D4A114041605B
:1016A00001680C4A11400160016821F48021016049
:1016B000416821F4FE0141604FF41F018160FFF792
:1016C00089FF05494FF00060086010BD001002401E
:1016D0000000FFF8FFFFF6FE08ED00E010B5012165
:1016E0008C07204600F041F8012803D10121204653
:1016F00000F02CF805494888401C80B24880022838
:1017000003D3002048800120087010BD580000203D
:1017100010B50C4C0121204600F027F8012803D118
:101720000121204600F012F807498888401C00B2C9
:101730008880B0F57A7F03DB002088800120487024
:1017400010BD0000000C004058000020C943018279
:101750007047002904D0018841F0010101807047E1
:10176000018821F001010180704702460020138AA0
:101770000B4092890A40002B02D0002A00D00120A1
:101780007047002A03D082890A4382817047828988
:101790008A4382817047000030B502881B4C1C4D83
:1017A000A0420DD0A8420BD0B0F1804F08D0194B09
:1017B000984205D0184B984202D0184B984203D15A
:1017C00022F070034A881A43154B984206D0154BF5
:1017D000984203D022F44073CA881A4302808A8850
:1017E00082850A880285A0420AD0A84208D00E4A03
:1017F000904205D00D4A904202D00D4A904201D14C
:10180000097A01860121818230BD0000002C01404F
:10181000003401400004004000080040000C00407B
:10182000001000400014004000400140004401400E
:101830000048014003480168002902D00168491EA0
:101840000160704774000020F8B500240094214D19
:1018500040F22551284600F062F848B12520FFF7F4
:101860001DFB284600F0F4F8C0B2009000F004F927
:101870000821284600F04CF8012806D10821284606
:1018800000F02EF8284600F0E3F840F227763146C3
:10189000284600F044F800281AD03146284600F0C7
:1018A00023F82520FFF7FAFA6846FFF777FE9DF840
:1018B0000010284600F0D0F80748FFF749FD00283F
:1018C00006D00648047000223146284600F047F84A
:1018D000F8BD000000380140900400205E000020A8
:1018E0008A05C9430180704740F66A120A0A01213D
:1018F0009140C94301807047002904D0818941F497
:10190000005181817047818921F4005181817047A4
:101910000246002012880A4200D00120704770B5AC
:10192000002440F66A12C1F3421301F01F0501269C
:1019300006FA05F2012B0CD0022B0DD0838A13403E
:10194000090A8E40008830400BB100B101242046C6
:1019500070BD83891340F3E7038A1340F0E710B5A5
:1019600040F66A13C1F3421301F01F040121A140A4
:10197000012B07D0022B07D014303AB102680A437A
:10198000026010BD0C30F8E71030F6E702688A43B9
:10199000026010BD30B585B004460D46208A4CF675
:1019A000FF710840E98801432182A0894EF6F311B6
:1019B0000840A9882A8911436A8902431143A181F9
:1019C000A08A4FF6FF410840A9890143A1826846D9
:1019D000FFF702FD1D48844201D1039800E0029800
:1019E000A189090408D500EBC00101EB00102968AA
:1019F0004900B0FBF1F007E000EBC00101EB001083
:101A000029688900B0FBF1F06422B0FBF2F1090112
:101A10000B096FF018056B4300EB8300A3891D04CD
:101A20004FF0320307D503EBC000B0FBF2F000F03B
:101A30000700084306E003EB0010B0FBF2F000F0F3
:101A40000F000843208105B030BD00000038014080
:101A50008088C0F308007047C1F308018180704797
:101A60004FF41651016000218180C18001810C2258
:101A7000428181817047FEE701B501226946024833
:101A8000FEF7A7FDC0B208BD9C0400200FB4054BB3
:101A900010B503A9044A029800F018F810BC5DF8CC
:101AA00014FB00000F1E00088C00002002E008C894
:101AB000121F08C1002AFAD170477047002001E0C8
:101AC00001C1121F002AFBD1704700002DE9FF4F12
:101AD0008BB088460546002606E025280BD0DDE9B8
:101AE0000D1290476D1C761C28780028F5D10FB098
:101AF0003046BDE8F08F0024A146A2460122AE493F
:101B000000E0044315F8013F203B02FA03F00842CD
:101B1000F7D128782A2810D06FF02F022878A0F16A
:101B20003001092915D809EB890102EB410144F084
:101B3000020400EB01096D1CF0E758F8041B5FEA92
:101B4000010903D544F40054C9F1000944F002042A
:101B50006D1C28782E2817D115F8010F44F00404C5
:101B60002A280ED06FF02F022878A0F13001092921
:101B70000AD80AEB8A0102EB410100EB010A6D1C55
:101B8000F2E758F804AB6D1C28786C280FD006DCFF
:101B90004C2817D068280DD06A2814D104E0742886
:101BA00010D07A280FD10DE044F400140AE044F478
:101BB000801401E044F440146978814202D104F5B4
:101BC00080146D1C6D1C2878692865D006DC0028FF
:101BD0008DD0632827D0642806D15DE06E2808D018
:101BE00073282AD0752877D0DDE90D129047761C2E
:101BF000E0E0C4F30250022809D003280DD0D8F841
:101C0000001004280DD00E6008F10408D2E0D8F8C6
:101C10000010F217C1E90062F6E7D8F800100E8054
:101C2000F2E70E70F0E718F8041B8DF800100020A2
:101C30008DF80100EB46012003E058F804BB4FF09B
:101C4000FF3061074FF0000701D40AE07F1C5745C1
:101C50000DDA8742FADB1BF807100029F6D106E0FF
:101C60007F1C8742FCDB1BF807100029F8D1DDE957
:101C70000D23A9EB07008146214600F0B1F830445E
:101C8000C61904E0DDE90D121BF8010B90477F1E19
:101C9000F8D22146484688E058F8040BC4F30251B4
:101CA0004FF00A0B032900D100B2042900D140B241
:101CB000002802DA40422D2102E0210505D52B2122
:101CC0008DF82410012104E006E0E10710D0202166
:101CD000F6E708AF089113E058F8040BC4F302517B
:101CE0004FF00A0B032900D180B2042900D1C0B201
:101CF0000021EEE75946FEF74BFA303107F8011D97
:101D00000028F7D1ADEB070000F1200B600702D5EA
:101D100024F4803401E04FF0010ADA4502DDAAEB39
:101D20000B0000E00020824600EB0B010898014404
:101D3000A9EB01000A90E00306D4DDE90D2321465A
:101D40000A9800F04DF806444FF0000908E009A990
:101D500011F80900DDE90D12904709F10109761C1F
:101D600008998945F3DBE0030CD5DDE90D23214615
:101D70000A9800F035F8064404E0DDE90D12302041
:101D80009047761CBAF10001AAF1010AF5DC05E0E2
:101D9000DDE90D1217F8010B9047761CBBF100012D
:101DA000ABF1010BF4DC0A982146DDE90D2300F0CC
:101DB00005F806446D1C97E6092801002DE9F0415D
:101DC000044600251E461746880404D405E039461B
:101DD0002020B0476D1C641EF9D52846BDE8F0816F
:101DE0002DE9F041044600251E469046C80301D562
:101DF000302700E02027880404D505E04146384616
:101E0000B0476D1C641EF9D52846BDE8F08110B5B9
:101E10000446E0B2FFF7CEFB204610BD70B58AB095
:101E200005460C46164628221AA16846FEF79EF97A
:101E300000230A2E05D1002D03DA6D422D20012347
:101E400020706846B5FBF6F106FB1151425C19465D
:101E50005B1C6254B5FBF6F5002DF3D10020E05475
:101E600020782D2805D00022581E00EBD075134491
:101E700009E00122F8E7A15C981A204410F8016DEE
:101E8000A6540170521CB2EB650FF4DD0AB0204677
:101E900070BD000030313233343536373839414285
:101EA000434445464748494A4B4C4D4E4F5051528A
:101EB000535455565758595A00000000FEF7CAFDB2
:101EC000FEF774FDFFF72CFAFCE70000054944F229
:101ED000FD320888504341F6C3621044C0F30E003F
:101EE00008607047540000200149086070470000F6
:101EF000540000200000000000000000000000006E
:101F0000000000003F400000000000000000300022
:101F1000400030004000000009000BC03D000BC035
:101F20003D00090018C024407FE0224031800000BD
:101F3000180024C01B000D803240018003801C402B
:101F400027401C8007400040100060000000000097
:101F5000000000000000000000001F802040402022
:101F60000000402020401F80000000000900060003
:101F70001F80060009000000040004003F800400E8
:101F800004000000001000600000000000000000DD
:101F900004000400040004000400000000000040ED
:101FA0000000000000000000002001C00600380012
:101FB000400000001F802040204020401F80000083
:101FC000000010403FC000400000000018C0214049
:101FD000224024401840000010802040244024402B
:101FE0001B80000002000D0011003FC001400000F6
:101FF0003C80244024402440238000001F80244053
:1020000024403440038000003000200027C0380006
:10201000200000001B802440244024401B8000003E
:102020001C0022C0224022401F800000000000004F
:1020300008400000000000000000000004600000F4
:1020400000000000000004000A0011002080404051
:1020500009000900090009000900000000004040D3
:10206000208011000A0004001800200023402400F2
:10207000180000001F802040274029401F4000001A
:10208000004007C039000F0001C0004020403FC0A1
:10209000244024401B8000001F802040204020401E
:1020A0003080000020403FC0204020401F800000C2
:1020B00020403FC024402E4030C0000020403FC0A0
:1020C00024402E00300000000F00108020402240ED
:1020D0003380020020403FC0040004003FC0204085
:1020E000204020403FC020402040000000602020D1
:1020F00020203FC02000200020403FC024400B0093
:1021000030C0204020403FC020400040004000C080
:102110003FC03C0003C03C003FC0000020403FC027
:102120000C4023003FC020001F8020402040204062
:102130001F80000020403FC0244024001800000001
:102140001F802140214020E01FA0000020403FC010
:102150002440260019C0004018C0244024402240DA
:1021600031800000300020403FC02040300000009F
:1021700020003F80004000403F80200020003E00C3
:1021800001C0070038002000380007C03C0007C02D
:1021900038000000204039C0060039C0204000004F
:1021A0002000384007C0384020000000304021C0E7
:1021B0002640384020C00000000000007FE04020A2
:1021C00040200000000070000C0003800040000070
:1021D0000000402040207FE00000000000002000C0
:1021E000400020000000000000100010001000104F
:1021F000001000100000000040000000000000007F
:10220000000002800540054003C0004020003FC0A0
:1022100004400440038000000000038004400440A8
:102220000640000000000380044024403FC00040FE
:10223000000003800540054003400000000004400A
:102240001FC0244024402000000002E0055005503B
:102250000650042020403FC00440040003C000405A
:102260000000044027C000400000000000100010E3
:10227000041027E00000000020403FC0014007009C
:1022800004C00440204020403FC000400040000007
:1022900007C0040007C0040003C00000044007C0DA
:1022A0000440040003C000400000038004400440D8
:1022B00003800000041007F0045004400380000075
:1022C000000003800440045007F00010044007C0E1
:1022D00002400400040000000000064005400540E4
:1022E00004C00000000004001F8004400040000003
:1022F000040007800040044007C0004004000700BD
:1023000004C0018006000400060001C0070001C0EF
:1023100006000000044006C0010006C004400000A2
:102320000410071004E001800600040000000440CF
:1023300005C00640044000000000000004007BE0EF
:1023400040200000000000000000FFF0000000003E
:10235000000040207BE004000000000040008000FE
:1023600040002000200040000000000000000000AD
:1023700000000000000000000000000000001FCC72
:10238000000C0000000000000000080030006000A9
:102390000800300060000000022003FC1E20022024
:1023A00003FC1E200220000000000E1811043FFF55
:1023B00010840C78000000000F0010840F3800C05B
:1023C000077818840078000000780F8410C4112466
:1023D0000E9800E400840008080068007000000007
:1023E000000000000000000000000000000007E006
:1023F00018182004400200000000400220041818B1
:1024000007E00000000000000240024001800FF0E1
:1024100001800240024000000080008000800FF830
:1024200000800080008000000001000D000E000010
:10243000000000000000000000000080008000801C
:1024400000800080008000800000000C000C000074
:1024500000000000000000000000000600180060FE
:102460000180060018002000000007F00808100492
:102470001004080807F000000000080408041FFC0E
:10248000000400040000000000000E0C10141024D2
:10249000104411840E0C000000000C1810041104EC
:1024A000110412880C700000000000E003200424D6
:1024B00008241FFC0024000000001F981084110451
:1024C0001104108810700000000007F00888110443
:1024D000110418880070000000001C00100010FC9F
:1024E00013001C001000000000000E38114410847E
:1024F000108411440E38000000000700088C1044BE
:102500001044088807F00000000000000000030CE1
:10251000030C0000000000000000000000010106A4
:1025200000000000000000000000008001400220C8
:1025300004100808100400000220022002200220DB
:1025400002200220022000000000100408080410ED
:10255000022001400080000000000E001200100C5C
:10256000106C10800F00000003E00C1813E414241A
:1025700017C4082807D000000004003C03C41C4016
:10258000074000E4001C000410041FFC11041104A7
:1025900011040E880070000003E00C1810041004F1
:1025A000100410081C10000010041FFC100410047C
:1025B0001004080807F0000010041FFC11041104A7
:1025C00017C410040818000010041FFC11041100A7
:1025D00017C010000800000003E00C1810041004DD
:1025E00010441C780040000010041FFC1084008080
:1025F000008010841FFC10040000100410041FFC55
:10260000100410040000000000030001100110017C
:102610001FFE10001000000010041FFC11040380B6
:102620001464181C1004000010041FFC10040004A3
:1026300000040004000C000010041FFC1F0000FC3C
:102640001F001FFC1004000010041FFC0C040300FA
:1026500000E010181FFC100007F008081004100418
:102660001004080807F0000010041FFC10841080FC
:10267000108010800F00000007F0081810241024AC
:10268000101C080A07F2000010041FFC11041100BE
:1026900011C011300E0C000400000E1C1104108437
:1026A000108410441C3800001800100010041FFC97
:1026B000100410001800000010001FF8100400049F
:1026C000000410041FF8100010001E0011E0001C90
:1026D000007013801C0010001FC0103C00E01F00A1
:1026E00000E0103C1FC000001004180C163401C09C
:1026F00001C01634180C100410001C00130400FC58
:1027000013041C00100000000804101C1064108446
:1027100013041C04101800000000000000007FFEDD
:102720004002400240020000010003000700058053
:10273000050005041C8C70F60000400240024002B7
:102740007FFE00000000000070F61C8C05040500F0
:102750000580070003000100008000C000E001A028
:1027600000A020A031386F0E6F0E313820A000A0DD
:1027700001A000E000C00080000000980124014496
:102780000144014400FC000410001FFC0088010407
:10279000010400880070000000000070008801043F
:1027A000010401040088000000000070008801049A
:1027B000010411081FFC0004000000F8014401445A
:1027C0000144014400C800000000010401040FFCA2
:1027D0001104110411001800000000D6012901297C
:1027E000012901C90106000010041FFC008401003A
:1027F0000100010400FC000400000104190419FC9C
:1028000000040004000000000000000300010101BA
:10281000190119FE0000000010041FFC00240040F4
:1028200001B4010C010400000000100410041FFC9E
:102830000004000400000000010401FC0104010088
:1028400001FC0104010000FC010401FC0084010002
:102850000100010400FC0004000000F80104010470
:102860000104010400F80000010101FF00850104DA
:10287000010400880070000000000070008801045E
:102880000104010501FF00010104010401FC0084B1
:102890000104010001800000000000CC012401249B
:1028A000012401240198000000000100010007F844
:1028B0000104010400000000010001F8000400040C
:1028C0000004010801FC0004010001800170000CFB
:1028D000001001600180010001F0010C003001C016
:1028E0000030010C01F0010000000104018C0074B3
:1028F0000170018C01040000010101810171000ED1
:10290000001801600180010000000184010C013405
:1029100001440184010C00000000000000000000E0
:1029200001003EFC400240020000000000000000E8
:10293000FFFF0000000000000000400240023EFCDB
:102940000100000000000000000060008000800026
:102950004000400020002000596F757220506C61CB
:102960006E652077617320637261736865642E2ED3
:102970002E0A596F75722073636F72653A20256451
:102980000A507265737320524553455420746F206A
:1029900073746172742061206E65772067616D6564
:1029A0002E0A0000C429000800000020900000004A
:1029B000AC1A0008542A000890000020E00800002B
:1029C000BC1A000800000100000000000000000028
:1029D00000000000000000000300000001000000F3
:1029E00001000000000000000000000000000000E6
:1029F000010000000000000000000000F0FFFFFFE9
:102A000000000000F0FFFFFF00000000F0FFFFFFEC
:102A100000000000000000000100000000000000B5
:102A20000000000204060800000000010203040187
:102A300002030406070809000000000000A24A047F
:102A4000000000000000000001020304060708095E
:042A50000000000082
:0400000508000131BD
:00000001FF
